:100000000C9458000C9480000C9480000C94800098
:100010000C9480000C9480000C9480000C94800060
:100020000C9480000C9480000C9480000C94800050
:100030000C9480000C9480000C9480000C94800040
:100040000C9487050C9480000C9455050C942F0596
:100050000C9480000C9480000C9480000C94800020
:100060000C94D1050C9480000000000025002800AD
:100070002B00040404040404040402020202020229
:10008000030303030303010204081020408001025C
:1000900004081020010204081020000000080002DB
:1000A0000100000304070000000000000000F0064B
:1000B00011241FBECFEFD8E0DEBFCDBF11E0A0E01E
:1000C000B1E0EEEDFFE002C005900D92A432B10761
:1000D000D9F722E0A4E2B1E001C01D92A83DB20729
:1000E000E1F710E0C8E5D0E004C02197FE010E94CE
:1000F000E707C735D107C9F70E945A070C94ED07E7
:100100000C9400009091E0018091DF012FEF3FEF10
:10011000981748F4E92FF0E0E154FE4F208130E0D9
:100120009F5F9093E001C90108959091E001809153
:10013000DF012FEF3FEF981748F4E92FF0E0E1548B
:10014000FE4F208130E09F5F9093E001C901089548
:1001500090E0FC01E656FF4F2491FC01EA57FF4F67
:100160003491FC01EE58FF4FE491EE23B1F02223CD
:1001700039F02330E9F090F4213001F1223011F10F
:10018000F0E0EE0FFF1FE859FF4FA591B4918FB734
:10019000F894EC913E2B3C938FBF08952730A9F043
:1001A0002830C9F0243061F7809180008F7D03C032
:1001B000809180008F7780938000E2CF84B58F7725
:1001C00084BDDECF84B58F7DFBCF8091B0008F776B
:1001D0008093B000D5CF8091B0008F7DF9CF089586
:1001E0000895AF92BF92CF92DF92EF92FF920F935A
:1001F0001F93CF93DF936C017B018B01040F151FBD
:10020000EB015E01AE18BF08C017D10759F0699124
:10021000D601ED91FC910190F081E02DC601099588
:10022000892B79F7C501DF91CF911F910F91FF9035
:10023000EF90DF90CF90BF90AF900895FC01538D69
:10024000448D252F30E0842F90E0821B930B5417B0
:1002500010F0CF96089501970895FC01918D828D3D
:10026000981761F0A28DAE0FBF2FB11D5D968C91D6
:10027000928D9F5F9F73928F90E008958FEF9FEF15
:100280000895FC01918D828D981731F0828DE80FD1
:10029000F11D858D90E008958FEF9FEF0895FC018B
:1002A000918D228D892F90E0805C9F4F821B910958
:1002B0008F739927089581EE91E00E944F0121E00C
:1002C000892B09F420E0822F089580E090E0892BAB
:1002D00029F00E945B0181110C9400000895FC013B
:1002E000A48DA80FB92FB11DA35ABF4F2C91848D97
:1002F00090E001968F739927848FA689B7892C93F4
:10030000A089B1898C91837080648C93938D848D46
:10031000981306C00288F389E02D80818F7D808349
:100320000895EF92FF920F931F93CF93DF93EC0109
:1003300081E0888F9B8D8C8D98131AC0E889F9898C
:10034000808185FF15C09FB7F894EE89FF8960838F
:10035000E889F98980818370806480839FBF81E010
:1003600090E0DF91CF911F910F91FF90EF90089552
:10037000F62E0B8D10E00F5F1F4F0F731127E02E2D
:100380008C8D8E110CC00FB607FCFACFE889F98965
:10039000808185FFF5CFCE010E946F01F1CFEB8DFB
:1003A000EC0FFD2FF11DE35AFF4FF0829FB7F89439
:1003B0000B8FEA89FB8980818062CFCFCF93DF9357
:1003C000EC01888D8823B9F0AA89BB89E889F9896D
:1003D0008C9185FD03C0808186FD0DC00FB607FCA2
:1003E000F7CF8C9185FFF2CF808185FFEDCFCE01D5
:1003F0000E946F01E9CFDF91CF9108953FB7F89444
:1004000080916C0190916D01A0916E01B0916F018E
:1004100026B5A89B05C02F3F19F00196A11DB11D5F
:100420003FBFBA2FA92F982F8827BC01CD01620F9B
:10043000711D811D911D42E0660F771F881F991F56
:100440004A95D1F708958F929F92AF92BF92CF9223
:10045000DF92EF92FF920E94FE014B015C018AE065
:10046000C82ED12CE12CF12C0E94FE0168197909CB
:100470008A099B09683E734081059105A8F321E034
:10048000C21AD108E108F10888EE880E83E0981EB0
:10049000A11CB11CC114D104E104F10429F7FF909F
:1004A000EF90DF90CF90BF90AF909F908F90089586
:1004B00085ED8093BC008091BC0084FDFCCF109240
:1004C000BC01089520914401260F3327331F2132A8
:1004D0003105ECF42091BC01FC0190E080E0243077
:1004E00069F082E00895A09144012191AC014C5D36
:1004F0005E4FA40FB52FB11D2C930196861798F36C
:1005000080914401680F6093440180E0089581E088
:1005100008950895E091E0018091DF01E81730F43B
:10052000F0E0E154FE4F808190E008958FEF9FEF5F
:1005300008958091DF019091E001891B990B089546
:10054000CF92DF92EF92FF920F931F93CF93DF939F
:100550007C01CB018A012091B501222389F0EB01B6
:100560006B01C40ED51ECC15DD0569F06991D7016C
:10057000ED91FC910190F081E02DC7010995F3CF39
:10058000642F0E946202C801DF91CF911F910F91E9
:10059000FF90EF90DF90CF900895CF93DF931F925D
:1005A000CDB7DEB769832091B5012223F9F0209100
:1005B000BD01203258F021E030E0FC01338322837A
:1005C00090E080E00F90DF91CF9108958091BE017F
:1005D000E82FF0E0EC56FE4F998190838F5F809377
:1005E000BE018093BD0181E090E0ECCF61E0CE01DF
:1005F00001960E946202F7CF90E080E00895CF93C9
:100600001092E0011092DF011092BE011092BD0124
:100610001092BC01C1E0C093BB011092BA0182E10B
:100620000E94A80083E10E94A8008091B9008E7FFB
:100630008093B9008091B9008D7F8093B90088E4E0
:100640008093B80085E48093BC008FEE90E0909397
:10065000B9018093B80180EF90E09093B701809347
:10066000B601C093B50188E08093B4011092BE0139
:100670001092BD016EE18EE792E00E94CD02909152
:10068000BD01913208F03FC08091BC018111FCCFC7
:1006900082E08093BC0181E08093BB018FEF809367
:1006A00093011092920190939101E4E9F1E0A1E7A6
:1006B000B1E080E09813C7C1109270018091700181
:1006C0008061809370018091BA01813009F0BFC1CF
:1006D0001092BA01809170018093BB008091BC00A0
:1006E00083FDF8CF85EC8093BC008091BC01823003
:1006F000E1F3809193018F3F31F08091930180323B
:1007000011F0809193011092BE011092BD011092E0
:10071000B5010E9423028091BC018111FCCF81E0D0
:100720008093BC018093BB019FEF90939301109243
:1007300092019FE1909391018093700180917001EB
:100740008061809370018091BA01813009F081C18C
:100750001092BA01809170018093BB008091BC001F
:1007600083FDF8CF85EC8093BC008091BC01813083
:10077000E1F38091920190E2803210F49091920125
:10078000A1E7B1E0EFEBF1E080E0891364C11092E2
:10079000E0018093DF010E9495008093AF020E94E8
:1007A00095008093B0020E9495009093C2028093BE
:1007B000C1020E9495009093C4028093C3020E94DC
:1007C00095009093B2028093B1020E94950090939D
:1007D000B4028093B3020E9495009093B602809376
:1007E000B5020E9495009093B8028093B7020E94D0
:1007F00095009093BA028093B9020E94950090935D
:10080000BC028093BB020E949500809393020E94D9
:100810009500809394020E949500809395020E9417
:100820009500809396020E94950090938C0280938D
:100830008B020E94950090938E0280938D020E94FD
:1008400095009093900280938F020E949500909360
:100850009202809391020E94950090939802809357
:1008600097020E94950090939A02809399020E94A9
:10087000950090939C0280939B020E949500909318
:100880009E0280939D020E9495008093A3020E9485
:1008900095008093A4020E9495008093A5020E9477
:1008A00095008093A6020E9495008093AB020E945F
:1008B00095008093AC020E9495008093AD020E9447
:1008C00095008093AE020E94950080938A020E9458
:1008D000950021E0892B09F420E02093D7020E94A3
:1008E00023028091A40290E0982F88272091A302F0
:1008F000820F911D9093A00280939F028091A60287
:1009000090E0982F88272091A502820F911D909347
:10091000A2028093A1028091AC0290E0982F8827D8
:100920002091AB02820F911D9093A8028093A702A1
:100930008091AE0290E0982F88272091AD02820F1F
:10094000911D9093AA028093A9021092CD02109259
:10095000CE021092CF021092D0021092D1021092C9
:10096000D2021092D3021092D4021092C5021092B9
:10097000C6021092C7021092C8021092C9021092C9
:10098000CA021092CB021092CC021092D502809132
:100990008A02813011F48093D5028091AF0280FFEA
:1009A00003C091E09093CD0281FF03C091E090934A
:1009B000CE0282FF03C091E09093CF0283FF03C079
:1009C00091E09093D00284FF03C091E09093D10214
:1009D00085FF03C091E09093D20286FF03C091E0AF
:1009E0009093D30287FF03C081E08093D40280916B
:1009F000B00280FF03C091E09093C50281FF03C065
:100A000091E09093C60282FF03C091E09093C702E9
:100A100083FF03C091E09093C80284FF03C091E07C
:100A20009093C90285FF03C091E09093CA0286FFAC
:100A300003C091E09093CB0287FF03C081E08093D5
:100A4000CC02CF91089521912D938F5F33CE85EE07
:100A50004ACE85EE88CE2D9121938F5F96CE1F9240
:100A60000F920FB60F9211242F933F934F935F93E2
:100A70006F937F938F939F93AF93BF93EF93FF9366
:100A800081EE91E00E946F01FF91EF91BF91AF91D4
:100A90009F918F917F916F915F914F913F912F9196
:100AA0000F900FBE0F901F9018951F920F920FB6C8
:100AB0000F9211242F938F939F93EF93FF93E091C5
:100AC000F101F091F2018081E091F701F091F801DC
:100AD00082FD1BC090818091FA018F5F8F732091FE
:100AE000FB01821741F0E091FA01F0E0EF51FE4F77
:100AF000958F8093FA01FF91EF919F918F912F91A4
:100B00000F900FBE0F901F9018958081F4CF1F9209
:100B10000F920FB60F9211242F933F938F939F93B1
:100B2000AF93BF938091680190916901A0916A0190
:100B3000B0916B013091670123E0230F2D3758F5F9
:100B40000196A11DB11D20936701809368019093C8
:100B50006901A0936A01B0936B0180916C0190913F
:100B60006D01A0916E01B0916F010196A11DB11DA3
:100B700080936C0190936D01A0936E01B0936F010F
:100B8000BF91AF919F918F913F912F910F900FBE89
:100B90000F901F90189526E8230F0296A11DB11DF6
:100BA000D2CF1F920F920FB60F9211242F933F9323
:100BB0004F935F936F937F938F939F93AF93BF9365
:100BC000EF93FF938091B900887F803609F44AC083
:100BD000F0F5883209F4A7C018F5803109F49BC0FC
:100BE000B8F4882309F4F9C0883009F494C0FF915F
:100BF000EF91BF91AF919F918F917F916F915F9195
:100C00004F913F912F910F900FBE0F901F9018950D
:100C1000883109F488C0803251F78093930114C061
:100C2000803409F49DC040F48033B9F38833F9F679
:100C30008093930185ECB0C0803509F485C0883578
:100C400009F496C0883499F60E945802D0CF8839AA
:100C500009F48CC038F5883729F050F4883611F043
:100C6000803729F683E08093BC011092660157C05B
:100C7000883809F47BC0803919F0803809F0B7CF83
:100C800080916601803208F071C0E091660181E0D8
:100C90008E0F809366018091BB00F0E0EA5BFE4F0F
:100CA00080833DC0803B39F0E0F4803A09F479C09C
:100CB000883A09F09CCF84E08093BC0110924501F2
:100CC00010924401E091B801F091B9010995809129
:100CD000440181110FC081E08093440110922401EE
:100CE00009C0803C09F4A6CF883C09F4A3CF883B17
:100CF00009F07DCFE091450181E08E0F80934501A1
:100D0000F0E0EC5DFE4F80818093BB009091450147
:100D10008091440129C0809170018093BB0085ECD3
:100D20008093BC0064CF90919201809191019817BB
:100D300058F5E091920181E08E0F80939201F0E0EE
:100D4000EF58FE4F8081E9CFE091920181E08E0F54
:100D5000809392018091BB00F0E0EF58FE4F8083BA
:100D600090919201809191019817C8F285E8D8CFAF
:100D7000E091920181E08E0F809392018091BB00FF
:100D8000F0E0EF58FE4F80838091BB0181115CCF72
:100D900081E08093BA0184EA8093BC001092BC0188
:100DA00026CF85EC8093BC001092BC018091660137
:100DB000803230F4E0916601F0E0EA5BFE4F108291
:100DC0006091660170E0E091B601F091B70186E4B0
:100DD00091E00995109266010ACF1092930134CFE9
:100DE000E1EEF1E01382128288EE93E0A0E0B0E041
:100DF00084839583A683B78324E031E03183208305
:100E000025EC30E03587248724EC30E037872687CF
:100E100020EC30E0318B208B21EC30E0338B228BC7
:100E200022EC30E0358B248B26EC30E0378B268BA0
:100E3000118E128E138E148EEEE7F2E01382128260
:100E400084839583A683B78386E191E09183808331
:100E5000EAE8F2E010821282118214821382168272
:100E600015821086178211861286138614861686BE
:100E70001586108A1786128A118A148A138A168A8E
:100E8000158A108E178A168E158E10A2178E15A22F
:100E900016A210A617A212A611A614A613A616A68D
:100EA00015A610AA17A612AA11AA14AA13AA16AA5E
:100EB00015AA0895789484B5826084BD84B5816054
:100EC00084BD85B5826085BD85B5816085BD809115
:100ED0006E00816080936E0010928100809181008D
:100EE0008260809381008091810081608093810085
:100EF000809180008160809380008091B100846047
:100F00008093B1008091B00081608093B0008091A7
:100F10007A00846080937A0080917A008260809366
:100F20007A0080917A00816080937A0080917A00C3
:100F3000806880937A001092C1000E94FF02E091C5
:100F4000F101F091F20182E08083E091ED01F091F6
:100F5000EE011082E091EF01F091F0018FEC8083BF
:100F60001092F901E091F501F091F60186E080839D
:100F7000E091F301F091F401808180618083E09140
:100F8000F301F091F401808188608083E091F301A6
:100F9000F091F401808180688083E091F301F09109
:100FA000F40180818F7D8083C0E0D0E00E94FF0249
:100FB0006091B30281EE91E00E9491012097B1F31C
:100FC0000E945B01882391F30E940000EFCFEE0F97
:0E0FD000FF1F0590F491E02D0994F894FFCFD7
:100FDE00000000009101F1001E01DE014F012D0104
:100FEE00410100000000CD02A002FC02890299021C
:040FFE0082008A02E1
:107E0000112484B714BE81FFF0D085E080938100F7
:107E100082E08093C00088E18093C10086E0809377
:107E2000C20080E18093C4008EE0C9D0259A86E02C
:107E300020E33CEF91E0309385002093840096BBD3
:107E4000B09BFECF1D9AA8958150A9F7CC24DD24C4
:107E500088248394B5E0AB2EA1E19A2EF3E0BF2EE7
:107E6000A2D0813461F49FD0082FAFD0023811F036
:107E7000013811F484E001C083E08DD089C08234E0
:107E800011F484E103C0853419F485E0A6D080C0E4
:107E9000853579F488D0E82EFF2485D0082F10E0AE
:107EA000102F00270E291F29000F111F8ED06801E7
:107EB0006FC0863521F484E090D080E0DECF843638
:107EC00009F040C070D06FD0082F6DD080E0C81688
:107ED00080E7D80618F4F601B7BEE895C0E0D1E017
:107EE00062D089930C17E1F7F0E0CF16F0E7DF06D8
:107EF00018F0F601B7BEE89568D007B600FCFDCFD4
:107F0000A601A0E0B1E02C9130E011968C91119780
:107F100090E0982F8827822B932B1296FA010C0160
:107F200087BEE89511244E5F5F4FF1E0A038BF0790
:107F300051F7F601A7BEE89507B600FCFDCF97BE46
:107F4000E89526C08437B1F42ED02DD0F82E2BD052
:107F50003CD0F601EF2C8F010F5F1F4F84911BD097
:107F6000EA94F801C1F70894C11CD11CFA94CF0C13
:107F7000D11C0EC0853739F428D08EE10CD085E9AC
:107F80000AD08FE07ACF813511F488E018D01DD067
:107F900080E101D065CF982F8091C00085FFFCCF94
:107FA0009093C60008958091C00087FFFCCF809118
:107FB000C00084FD01C0A8958091C6000895E0E648
:107FC000F0E098E1908380830895EDDF803219F02E
:107FD00088E0F5DFFFCF84E1DECF1F93182FE3DFCA
:107FE0001150E9F7F2DF1F91089580E0E8DFEE27F6
:047FF000FF270994CA
:027FFE00040479
:0400000300007E007B
:00000001FF
