:100000000C9462000C948A000C948A000C948A0070
:100010000C948A000C948A000C948A000C948A0038
:100020000C948A000C948A000C948A000C948A0028
:100030000C948A000C948A000C948A000C948A0018
:100040000C94E9040C948A000C948A000C948A00A5
:100050000C948A000C948A000C948A000C948A00F8
:100060000C9433050C948A00000000002400270043
:100070002A0000000000250028002B0000000008D6
:10008000000201000003040700000000000000005F
:1000900000000000230026002900040404040404D6
:1000A0000404020202020202030303030303010227
:1000B00004081020408001020408102001020408F6
:1000C0001020970611241FBECFEFD8E0DEBFCDBFB2
:1000D00011E0A0E0B1E0EEE1F4E102C005900D9284
:1000E000A231B107D9F722E0A2E1B1E001C01D922F
:1000F000A133B207E1F710E0C2E6D0E004C02197D7
:10010000FE010E94070AC136D107C9F70E94D9062D
:100110000C940D0A0C9400002091D60181E021324C
:1001200008F044C08091B2018111FCCF8091D501CB
:1001300092E09093B20191E09093B1019FEF909380
:10014000B0011092AF012093AE01A5EBB1E0EEE853
:10015000F1E090E0291331C010928D0190918D0152
:10016000880F892B80938D0180918C01813049F516
:1001700010928C0180918D018093BB008091BC0016
:1001800083FDF8CF85EC8093BC008091B201823072
:10019000E1F38091B0018F3FB1F08091B0018032E6
:1001A000A1F08091B001803391F084E01092B4010D
:1001B0001092D6011092B30108953D9131939F5F43
:1001C000C9CF85EEE0CF80E0F1CF82E0EFCF83E0D2
:1001D000EDCF91E09093B3018093D5011092B401DB
:1001E0001092D60108950895089590918B01809101
:1001F0008A012FEF3FEF981748F4E92FF0E0EA5912
:10020000FE4F208130E09F5F90938B01C9010895DC
:1002100090918B0180918A012FEF3FEF981748F45E
:10022000E92FF0E0EA59FE4F208130E09F5F909384
:100230008B01C9010895833081F028F4813099F051
:100240008230A9F008958730A9F08830C9F0843051
:10025000B1F4809180008F7D03C0809180008F7702
:1002600080938000089584B58F7784BD089584B508
:100270008F7DFBCF8091B0008F778093B000089581
:100280008091B0008F7DF9CFCF93DF93282F30E09E
:10029000F901E458FF4F8491F901E255FF4FD491E1
:1002A000F901E656FF4FC491CC23A1F081110E94C1
:1002B0001B01EC2FF0E0EE0FFF1FE057FF4FA59161
:1002C000B491EC91ED2381E090E009F480E0DF91BE
:1002D000CF91089580E090E0FACF1F93CF93DF9302
:1002E000282F30E0F901E458FF4F8491F901E255DD
:1002F000FF4FD491F901E656FF4FC491CC23A9F0EA
:10030000162F81110E941B01EC2FF0E0EE0FFF1F52
:10031000EE58FF4FA591B4918FB7F894EC9111115D
:1003200008C0D095DE23DC938FBFDF91CF911F9162
:100330000895DE2BF8CF10928B0110928A01109253
:10034000B4011092D6011092B20181E08093B10104
:1003500010928C0161E082E10E946D0161E083E115
:100360000E946D01E9EBF0E080818E7F80838081C7
:100370008D7F808388E48093B80085E48093BC00FF
:1003800083EF90E0909389018093880184EF90E05F
:1003900090938701809386010895CF93DF9390E037
:1003A000FC01E255FF4F249186569F4FFC0184913A
:1003B0008823D1F090E0880F991FFC01E859FF4F86
:1003C000A591B491FC01EE58FF4FC591D4916111F4
:1003D0000EC09FB7F8948C91E22FE0958E238C93FA
:1003E0002881E223E8839FBFDF91CF9108958FB7E3
:1003F000F894EC91E22BEC938FBFF6CF3FB7F894D3
:1004000080915A0190915B01A0915C01B0915D01D6
:1004100026B5A89B05C02F3F19F00196A11DB11D5F
:100420003FBFBA2FA92F982F8827BC01CD01620F9B
:10043000711D811D911D42E0660F771F881F991F56
:100440004A95D1F708958F929F92AF92BF92CF9223
:10045000DF92EF92FF924B015C010E94FE016B0163
:100460007C010E94FE016C197D098E099F09683E7E
:10047000734081059105A8F321E0821A9108A10833
:10048000B10888EEC80E83E0D81EE11CF11C81146F
:100490009104A104B10429F7FF90EF90DF90CF9071
:1004A000BF90AF909F908F90089585ED8093BC0092
:1004B0008091BC0084FDFCCF1092B2010895209180
:1004C0003201260F3327331F21323105ECF42091FE
:1004D000B201FC0190E080E0243069F082E00895F0
:1004E000A09132012191AC014E5E5E4FA40FB52F59
:1004F000B11D2C930196861798F380913201680FF5
:100500006093320180E0089581E008950895E091BC
:100510008B0180918A01E81730F4F0E0EA59FE4F30
:10052000808190E008958FEF9FEF089580918A0178
:1005300090918B01891B990B0895CF92DF92EF92D6
:10054000FF920F931F93CF93DF937C01CB018A011E
:100550002091B301222389F0EB016B01C40ED51E5B
:10056000CC15DD0569F06991D701ED91FC91019001
:10057000F081E02DC7010995F3CF642F0E945F023F
:10058000C801DF91CF911F910F91FF90EF90DF9005
:10059000CF900895CF93DF931F92CDB7DEB76983D5
:1005A0002091B3012223F9F02091D601203258F096
:1005B00021E030E0FC013383228390E080E00F9063
:1005C000DF91CF9108958091B401E82FF0E0EB54D2
:1005D000FE4F998190838F5F8093B4018093D60101
:1005E00081E090E0ECCF61E0CE0101960E945F02D5
:1005F000F7CF682F87ED91E00C94CA020F931F93F9
:10060000CF93DF938C01EB0185E00E94E90082E447
:1006100090E00E94F902C8010E94F902CE010E94F6
:10062000F9020E948C006AE070E080E090E0DF91C7
:10063000CF911F910F910C942302CF93DF93EC0184
:1006400088E00E94E90080E290E00E94F902CE0179
:100650000E94F9020E948C006AE070E080E090E065
:10066000DF91CF910C94230290E080E008950E94E6
:100670009B0188E00E94E9008EE190E00E94F9026F
:100680000E948C006AE070E080E090E00E9423020B
:100690008091B2018111FCCF81E08093B2018093FF
:1006A000B1019FEF9093B0011092AF019FE1909341
:1006B000AE0180938D0180918D01806180938D01C9
:1006C00080918C01813009F07EC110928C01809163
:1006D0008D018093BB008091BC0083FDF8CF85EC39
:1006E0008093BC008091B2018130E1F38091AF0131
:1006F00090E2803210F49091AF01EEE8F1E0A6E6CE
:10070000B1E080E0891361C110928B0180938A016E
:100710000E940801809308020E9408018093090248
:100720000E94080190931B0280931A020E94080104
:1007300090931D0280931C020E94080190930B026B
:1007400080930A020E94080190930D0280930C028C
:100750000E94080190930F0280930E020E940801EC
:1007600090931102809310020E940801909313024B
:10077000809312020E940801909315028093140244
:100780000E9408018093EC010E9408018093ED0112
:100790000E9408018093EE010E9408018093EF01FE
:1007A0000E9408019093E5018093E4010E940801F2
:1007B0009093E7018093E6010E9408019093E9017C
:1007C0008093E8010E9408019093EB018093EA0175
:1007D0000E9408019093F1018093F0010E940801AA
:1007E0009093F3018093F2010E9408019093F50128
:1007F0008093F4010E9408019093F7018093F60121
:100800000E9408018093FC010E9408018093FD0171
:100810000E9408018093FE010E9408018093FF015D
:100820000E940801809304020E940801809305023F
:100830000E940801809306020E940801809307022B
:100840000E9408018093E3010E94080121E0892BA6
:1008500009F420E0209330026AE070E080E090E04C
:100860000E9423028091FD0190E0982F882720911B
:10087000FC01820F911D9093F9018093F801809102
:10088000FF0190E0982F88272091FE01820F911D93
:100890009093FB018093FA018091050290E0982FDC
:1008A000882720910402820F911D9093010280936A
:1008B00000028091070290E0982F8827209106027D
:1008C000820F911D909303028093020210922602E0
:1008D00010922702109228021092290210922A02E6
:1008E00010922B0210922C0210922D0210921E02D6
:1008F00010921F02109220021092210210922202E6
:1009000010922302109224021092250210922E02BD
:100910008091E301813011F480932E0280910802CE
:1009200080FF03C091E09093260281FF03C091E015
:100930009093270282FF03C091E09093280283FFE7
:1009400003C091E09093290284FF03C091E090934B
:100950002A0285FF03C091E090932B0286FF03C01B
:1009600091E090932C0287FF03C081E080932D02D9
:100970008091090280FF03C091E090931E0281FFE5
:1009800003C091E090931F0282FF03C091E0909317
:10099000200283FF03C091E09093210284FF03C0F3
:1009A00091E09093220285FF03C091E0909323028F
:1009B00086FF03C091E09093240287FF03C081E08B
:1009C00080932502089585EE8BCE21912D938F5F24
:1009D00099CE1F920F920FB60F9211242F933F932F
:1009E0008F939F93AF93BF9380915601909157013E
:1009F000A0915801B09159013091550123E0230F86
:100A00002D3758F50196A11DB11D209355018093F6
:100A1000560190935701A0935801B09359018091CA
:100A20005A0190915B01A0915C01B0915D0101962A
:100A3000A11DB11D80935A0190935B01A0935C01AD
:100A4000B0935D01BF91AF919F918F913F912F9195
:100A50000F900FBE0F901F90189526E8230F029657
:100A6000A11DB11DD2CF1F920F920FB60F9211246C
:100A70002F933F934F935F936F937F938F939F93A6
:100A8000AF93BF93EF93FF938091B900887F803637
:100A900009F44AC0F0F5883209F4A7C018F580318E
:100AA00009F49BC0B8F4882309F4F9C0883009F42C
:100AB00094C0FF91EF91BF91AF919F918F917F91E2
:100AC0006F915F914F913F912F910F900FBE0F90BB
:100AD0001F901895883109F488C0803251F78093AF
:100AE000B00114C0803409F49DC040F48033B9F3E0
:100AF0008833F9F68093B00185ECB0C0803509F4F5
:100B000085C0883509F496C0883499F60E9455024C
:100B1000D0CF883909F48CC038F5883729F050F4E3
:100B2000883611F0803729F683E08093B201109265
:100B3000540157C0883809F47BC0803919F08038D7
:100B400009F0B7CF80915401803208F071C0E09174
:100B5000540181E08E0F809354018091BB00F0E03E
:100B6000EC5CFE4F80833DC0803B39F0E0F4803A7E
:100B700009F479C0883A09F09CCF84E08093B201EF
:100B80001092330110923201E0918801F0918901B5
:100B900009958091320181110FC081E0809332016B
:100BA0001092120109C0803C09F4A6CF883C09F4D8
:100BB000A3CF883B09F07DCFE091330181E08E0F18
:100BC00080933301F0E0EE5EFE4F80818093BB00A6
:100BD000909133018091320129C080918D018093E1
:100BE000BB0085EC8093BC0064CF9091AF018091F5
:100BF000AE01981758F5E091AF0181E08E0F809318
:100C0000AF01F0E0E257FE4F8081E9CFE091AF0104
:100C100081E08E0F8093AF018091BB00F0E0E2573E
:100C2000FE4F80839091AF018091AE019817C8F27A
:100C300085E8D8CFE091AF0181E08E0F8093AF01BE
:100C40008091BB00F0E0E257FE4F80838091B101BC
:100C500081115CCF81E080938C0184EA8093BC0099
:100C60001092B20126CF85EC8093BC001092B201A5
:100C700080915401803230F4E0915401F0E0EC5C5A
:100C8000FE4F10826091540170E0E0918601F09176
:100C9000870184E391E00995109254010ACF1092E4
:100CA000B00134CFCF92DF92EF92FF920F931F9358
:100CB000E82FF92F05C0015011092109310961F10F
:100CC000908196239417B9F305C0015011092109A9
:100CD000310911F1908196239413F7CFC12CD12CB7
:100CE000E12CF12C0AC08FEFC81AD80AE80AF80ADA
:100CF0000C151D052E053F0579F08081862384178C
:100D000091F36C2D7D2D8E2D9F2D1F910F91FF90B6
:100D1000EF90DF90CF90089560E070E080E090E089
:100D20001F910F91FF90EF90DF90CF900895E7ED26
:100D3000F1E01382128288EE93E0A0E0B0E08483B9
:100D40009583A683B78384E091E091838083E3EE6B
:100D5000F1E01082128211821482138216821582AF
:100D600010861782118612861386148616861586BB
:100D7000108A1786128A118A148A138A168A158A8B
:100D8000108E178A168E158E10A2178E15A216A217
:100D900010A617A212A611A614A613A616A615A68B
:100DA00010AA17A612AA11AA14AA13AA16AA15AA5B
:100DB0000895789484B5826084BD84B5816084BDD3
:100DC00085B5826085BD85B5816085BD80916E00E9
:100DD000816080936E00109281008091810082601A
:100DE0008093810080918100816080938100809157
:100DF00080008160809380008091B1008460809346
:100E0000B1008091B00081608093B00080917A0041
:100E1000846080937A0080917A00826080937A0067
:100E200080917A00816080937A0080917A00806856
:100E300080937A001092C1000E949B0164EF71E0E0
:100E400080E090E00E94230261E085E00E94CD01F5
:100E500061E085E00E946D0160E088E00E94CD01C4
:100E600088E00E944401892BB9F761E085E00E9487
:100E7000CD0160E085E00E946D0181E00E94E90003
:100E800087E290E00E94F9020E948C006AE070E024
:100E900080E090E00E94230282E00E94E90087E265
:100EA00090E00E94F9020E948C006AE070E080E00D
:100EB00090E00E94230283E00E94E90087E290E034
:100EC0000E94F9020E948C006AE070E080E090E0ED
:100ED0000E94230284E00E94E90087E290E00E94E1
:100EE000F9020E948C006AE070E080E090E00E94CD
:100EF000230285E00E94E90087E290E00E94F90267
:100F00000E948C006AE070E080E090E00E94230282
:100F100086E00E94E90087E290E00E94F9020E94C8
:100F20008C0068EE73E080E090E00E94230281E094
:100F30000E94E90085E290E00E94F9020E948C0084
:100F40006AE070E080E090E00E94230282E00E946C
:100F5000E90085E290E00E94F9020E948C006AE0BC
:100F600070E080E090E00E94230283E00E94E900AC
:100F700085E290E00E94F9020E948C006AE070E035
:100F800080E090E00E94230284E00E94E90085E274
:100F900090E00E94F9020E948C006AE070E080E01C
:100FA00090E00E94230285E00E94E90085E290E043
:100FB0000E94F9020E948C006AE070E080E090E0FC
:100FC0000E94230286E00E94E90085E290E00E94F0
:100FD000F9020E948C0064E670E080E090E00E94DC
:100FE000230286E00E94E90088E290E00E94F90274
:100FF00084E690E00E94F9020E948C006AE070E0B2
:1010000080E090E00E94230290E8492E97E0592E5C
:10101000612C712C23E0222E312C3FE0832E912C69
:101020004AE3E42EF12C50E0C52E50E0D52E64EBBF
:10103000A62EB12CCEE1D0E00E94370380912E0283
:1010400081113CC170E060E090E080E00E94FE020F
:1010500061E086E00E94CD0161E086E00E946D01C2
:1010600061E085E00E94CD0160E085E00E946D01B5
:101070000E9437038091ED01082E000C990B90938C
:101080005F0180935E018091EF01082E000C990BA7
:1010900090936101809360010E94370380911A024E
:1010A00090911B02892B81F0A0910002B091010266
:1010B00024EB30E00E94EC09A30192010E94880910
:1010C00030936301209362010E94370380912002D4
:1010D000811104C080911E02882349F08091620131
:1010E00090916301019690936301809362018091D6
:1010F0002102811104C080911F02882349F0809150
:101100006201909163010197909363018093620162
:10111000809162019091630197FF04C01092630176
:10112000109262018091620190916301853B91056B
:1011300024F0B0926301A09262010E9437038BE910
:101140009FE00197F1F761E083E00E94CD0160E04C
:1011500083E00E946D01C1010197F1F761E083E036
:101160000E946D01C4010197F1F760E083E00E94E5
:101170006D0160E083E00E94CD01E1EBF0E064915D
:10118000EDE9F0E08491E82FF0E0EE0FFF1FE0576B
:10119000FF4F8591949100E412E42FE030E0462F58
:1011A0000E945206611571058105910529F06F5F56
:1011B0007F4F8F4F9F4F9F70CB01B7010E94D8097F
:1011C0006F3171050CF088C080915E0190915F01D4
:1011D0001816190624F010925F0110925E0180919A
:1011E0006001909161011816190624F010926101B6
:1011F0001092600181E090E00E941D030E9437037D
:101200008091260281110DC080912802811109C0B0
:1012100080912702811105C080912902882309F459
:1012200064C081E08093650180916501882309F4A1
:101230006CC00E94370360E083E00E94CD0183E030
:101240000E944401019709F053C0109264018091FB
:101250006401811151C0D0935F01C0935E01D093AE
:101260006101C093600182E090E00E941D03009143
:1012700062011091630186E00E94E9008FE290E034
:101280000E94F902C8010E94F9020E948C006AE0E3
:1012900070E080E090E00E94230260916001709114
:1012A000610180915E0190915F010E94FE02C11474
:1012B000D10409F4C1CE0E940000BECE61E086E0F8
:1012C0000E94CD0160E086E00E946D0161E085E052
:1012D0000E94CD0161E0C9CE83E090E063337105E7
:1012E0000CF48ACF84E090E087CF109265019CCF08
:1012F00081E080936401ABCF10925F0110925E0198
:101300001092610110926001AECF10926401AFCFD4
:10131000052E97FB1EF400940E949F0957FD07D0ED
:101320000E94A70907FC03D04EF40C949F09509526
:101330004095309521953F4F4F4F5F4F08959095C1
:101340008095709561957F4F8F4F9F4F0895A1E2D3
:101350001A2EAA1BBB1BFD010DC0AA1FBB1FEE1F2F
:10136000FF1FA217B307E407F50720F0A21BB30B7A
:10137000E40BF50B661F771F881F991F1A9469F7F6
:1013800060957095809590959B01AC01BD01CF0152
:101390000895A29FB001B39FC001A39F700D811D4E
:1013A0001124911DB29F700D811D1124911D08956E
:1013B00097FB072E16F4009407D077FD09D00E9402
:1013C000F30907FC05D03EF4909581959F4F089551
:1013D000709561957F4F08950E94C909B7FF0895E0
:1013E000821B930B0895AA1BBB1B51E107C0AA1FC8
:1013F000BB1FA617B70710F0A61BB70B881F991FB6
:101400005A95A9F780959095BC01CD010895EE0FEE
:0E141000FF1F0590F491E02D0994F894FFCF92
:10141E0000000000CA029D02340386029602F50007
:02142E00870233
:107E0000112484B714BE81FFF0D085E080938100F7
:107E100082E08093C00088E18093C10086E0809377
:107E2000C20080E18093C4008EE0C9D0259A86E02C
:107E300020E33CEF91E0309385002093840096BBD3
:107E4000B09BFECF1D9AA8958150A9F7CC24DD24C4
:107E500088248394B5E0AB2EA1E19A2EF3E0BF2EE7
:107E6000A2D0813461F49FD0082FAFD0023811F036
:107E7000013811F484E001C083E08DD089C08234E0
:107E800011F484E103C0853419F485E0A6D080C0E4
:107E9000853579F488D0E82EFF2485D0082F10E0AE
:107EA000102F00270E291F29000F111F8ED06801E7
:107EB0006FC0863521F484E090D080E0DECF843638
:107EC00009F040C070D06FD0082F6DD080E0C81688
:107ED00080E7D80618F4F601B7BEE895C0E0D1E017
:107EE00062D089930C17E1F7F0E0CF16F0E7DF06D8
:107EF00018F0F601B7BEE89568D007B600FCFDCFD4
:107F0000A601A0E0B1E02C9130E011968C91119780
:107F100090E0982F8827822B932B1296FA010C0160
:107F200087BEE89511244E5F5F4FF1E0A038BF0790
:107F300051F7F601A7BEE89507B600FCFDCF97BE46
:107F4000E89526C08437B1F42ED02DD0F82E2BD052
:107F50003CD0F601EF2C8F010F5F1F4F84911BD097
:107F6000EA94F801C1F70894C11CD11CFA94CF0C13
:107F7000D11C0EC0853739F428D08EE10CD085E9AC
:107F80000AD08FE07ACF813511F488E018D01DD067
:107F900080E101D065CF982F8091C00085FFFCCF94
:107FA0009093C60008958091C00087FFFCCF809118
:107FB000C00084FD01C0A8958091C6000895E0E648
:107FC000F0E098E1908380830895EDDF803219F02E
:107FD00088E0F5DFFFCF84E1DECF1F93182FE3DFCA
:107FE0001150E9F7F2DF1F91089580E0E8DFEE27F6
:047FF000FF270994CA
:027FFE00040479
:0400000300007E007B
:00000001FF
